{
  "abi": [
    {
      "inputs": [
        {
          "internalType": "string",
          "name": "_name",
          "type": "string"
        },
        {
          "internalType": "string",
          "name": "_symbol",
          "type": "string"
        },
        {
          "internalType": "string",
          "name": "_baseURI",
          "type": "string"
        }
      ],
      "stateMutability": "nonpayable",
      "type": "constructor"
    },
    {
      "inputs": [],
      "name": "MaxSupply",
      "type": "error"
    },
    {
      "inputs": [],
      "name": "MintPriceNotPaid",
      "type": "error"
    },
    {
      "inputs": [],
      "name": "NonExistentTokenURI",
      "type": "error"
    },
    {
      "inputs": [
        {
          "internalType": "address",
          "name": "owner",
          "type": "address"
        }
      ],
      "name": "OwnableInvalidOwner",
      "type": "error"
    },
    {
      "inputs": [
        {
          "internalType": "address",
          "name": "account",
          "type": "address"
        }
      ],
      "name": "OwnableUnauthorizedAccount",
      "type": "error"
    },
    {
      "inputs": [],
      "name": "WithdrawTransfer",
      "type": "error"
    },
    {
      "anonymous": false,
      "inputs": [
        {
          "indexed": true,
          "internalType": "address",
          "name": "owner",
          "type": "address"
        },
        {
          "indexed": true,
          "internalType": "address",
          "name": "spender",
          "type": "address"
        },
        {
          "indexed": true,
          "internalType": "uint256",
          "name": "id",
          "type": "uint256"
        }
      ],
      "name": "Approval",
      "type": "event"
    },
    {
      "anonymous": false,
      "inputs": [
        {
          "indexed": true,
          "internalType": "address",
          "name": "owner",
          "type": "address"
        },
        {
          "indexed": true,
          "internalType": "address",
          "name": "operator",
          "type": "address"
        },
        {
          "indexed": false,
          "internalType": "bool",
          "name": "approved",
          "type": "bool"
        }
      ],
      "name": "ApprovalForAll",
      "type": "event"
    },
    {
      "anonymous": false,
      "inputs": [
        {
          "indexed": true,
          "internalType": "address",
          "name": "previousOwner",
          "type": "address"
        },
        {
          "indexed": true,
          "internalType": "address",
          "name": "newOwner",
          "type": "address"
        }
      ],
      "name": "OwnershipTransferred",
      "type": "event"
    },
    {
      "anonymous": false,
      "inputs": [
        {
          "indexed": true,
          "internalType": "address",
          "name": "from",
          "type": "address"
        },
        {
          "indexed": true,
          "internalType": "address",
          "name": "to",
          "type": "address"
        },
        {
          "indexed": true,
          "internalType": "uint256",
          "name": "id",
          "type": "uint256"
        }
      ],
      "name": "Transfer",
      "type": "event"
    },
    {
      "inputs": [],
      "name": "MINT_PRICE",
      "outputs": [
        {
          "internalType": "uint256",
          "name": "",
          "type": "uint256"
        }
      ],
      "stateMutability": "view",
      "type": "function"
    },
    {
      "inputs": [],
      "name": "TOTAL_SUPPLY",
      "outputs": [
        {
          "internalType": "uint256",
          "name": "",
          "type": "uint256"
        }
      ],
      "stateMutability": "view",
      "type": "function"
    },
    {
      "inputs": [
        {
          "internalType": "address",
          "name": "spender",
          "type": "address"
        },
        {
          "internalType": "uint256",
          "name": "id",
          "type": "uint256"
        }
      ],
      "name": "approve",
      "outputs": [],
      "stateMutability": "nonpayable",
      "type": "function"
    },
    {
      "inputs": [
        {
          "internalType": "address",
          "name": "owner",
          "type": "address"
        }
      ],
      "name": "balanceOf",
      "outputs": [
        {
          "internalType": "uint256",
          "name": "",
          "type": "uint256"
        }
      ],
      "stateMutability": "view",
      "type": "function"
    },
    {
      "inputs": [],
      "name": "baseURI",
      "outputs": [
        {
          "internalType": "string",
          "name": "",
          "type": "string"
        }
      ],
      "stateMutability": "view",
      "type": "function"
    },
    {
      "inputs": [],
      "name": "currentTokenId",
      "outputs": [
        {
          "internalType": "uint256",
          "name": "",
          "type": "uint256"
        }
      ],
      "stateMutability": "view",
      "type": "function"
    },
    {
      "inputs": [
        {
          "internalType": "uint256",
          "name": "",
          "type": "uint256"
        }
      ],
      "name": "getApproved",
      "outputs": [
        {
          "internalType": "address",
          "name": "",
          "type": "address"
        }
      ],
      "stateMutability": "view",
      "type": "function"
    },
    {
      "inputs": [
        {
          "internalType": "address",
          "name": "",
          "type": "address"
        },
        {
          "internalType": "address",
          "name": "",
          "type": "address"
        }
      ],
      "name": "isApprovedForAll",
      "outputs": [
        {
          "internalType": "bool",
          "name": "",
          "type": "bool"
        }
      ],
      "stateMutability": "view",
      "type": "function"
    },
    {
      "inputs": [
        {
          "internalType": "address",
          "name": "recipient",
          "type": "address"
        }
      ],
      "name": "mintTo",
      "outputs": [
        {
          "internalType": "uint256",
          "name": "",
          "type": "uint256"
        }
      ],
      "stateMutability": "payable",
      "type": "function"
    },
    {
      "inputs": [],
      "name": "name",
      "outputs": [
        {
          "internalType": "string",
          "name": "",
          "type": "string"
        }
      ],
      "stateMutability": "view",
      "type": "function"
    },
    {
      "inputs": [],
      "name": "owner",
      "outputs": [
        {
          "internalType": "address",
          "name": "",
          "type": "address"
        }
      ],
      "stateMutability": "view",
      "type": "function"
    },
    {
      "inputs": [
        {
          "internalType": "uint256",
          "name": "id",
          "type": "uint256"
        }
      ],
      "name": "ownerOf",
      "outputs": [
        {
          "internalType": "address",
          "name": "owner",
          "type": "address"
        }
      ],
      "stateMutability": "view",
      "type": "function"
    },
    {
      "inputs": [],
      "name": "renounceOwnership",
      "outputs": [],
      "stateMutability": "nonpayable",
      "type": "function"
    },
    {
      "inputs": [
        {
          "internalType": "address",
          "name": "from",
          "type": "address"
        },
        {
          "internalType": "address",
          "name": "to",
          "type": "address"
        },
        {
          "internalType": "uint256",
          "name": "id",
          "type": "uint256"
        }
      ],
      "name": "safeTransferFrom",
      "outputs": [],
      "stateMutability": "nonpayable",
      "type": "function"
    },
    {
      "inputs": [
        {
          "internalType": "address",
          "name": "from",
          "type": "address"
        },
        {
          "internalType": "address",
          "name": "to",
          "type": "address"
        },
        {
          "internalType": "uint256",
          "name": "id",
          "type": "uint256"
        },
        {
          "internalType": "bytes",
          "name": "data",
          "type": "bytes"
        }
      ],
      "name": "safeTransferFrom",
      "outputs": [],
      "stateMutability": "nonpayable",
      "type": "function"
    },
    {
      "inputs": [
        {
          "internalType": "address",
          "name": "operator",
          "type": "address"
        },
        {
          "internalType": "bool",
          "name": "approved",
          "type": "bool"
        }
      ],
      "name": "setApprovalForAll",
      "outputs": [],
      "stateMutability": "nonpayable",
      "type": "function"
    },
    {
      "inputs": [
        {
          "internalType": "bytes4",
          "name": "interfaceId",
          "type": "bytes4"
        }
      ],
      "name": "supportsInterface",
      "outputs": [
        {
          "internalType": "bool",
          "name": "",
          "type": "bool"
        }
      ],
      "stateMutability": "view",
      "type": "function"
    },
    {
      "inputs": [],
      "name": "symbol",
      "outputs": [
        {
          "internalType": "string",
          "name": "",
          "type": "string"
        }
      ],
      "stateMutability": "view",
      "type": "function"
    },
    {
      "inputs": [
        {
          "internalType": "uint256",
          "name": "tokenId",
          "type": "uint256"
        }
      ],
      "name": "tokenURI",
      "outputs": [
        {
          "internalType": "string",
          "name": "",
          "type": "string"
        }
      ],
      "stateMutability": "view",
      "type": "function"
    },
    {
      "inputs": [
        {
          "internalType": "address",
          "name": "from",
          "type": "address"
        },
        {
          "internalType": "address",
          "name": "to",
          "type": "address"
        },
        {
          "internalType": "uint256",
          "name": "id",
          "type": "uint256"
        }
      ],
      "name": "transferFrom",
      "outputs": [],
      "stateMutability": "nonpayable",
      "type": "function"
    },
    {
      "inputs": [
        {
          "internalType": "address",
          "name": "newOwner",
          "type": "address"
        }
      ],
      "name": "transferOwnership",
      "outputs": [],
      "stateMutability": "nonpayable",
      "type": "function"
    },
    {
      "inputs": [
        {
          "internalType": "address payable",
          "name": "payee",
          "type": "address"
        }
      ],
      "name": "withdrawPayments",
      "outputs": [],
      "stateMutability": "nonpayable",
      "type": "function"
    }
  ],
  "bytecode": {
    "object": "0x60806040523480156200001157600080fd5b506040516200181138038062001811833981016040819052620000349162000198565b3383836000620000458382620002b8565b506001620000548282620002b8565b50505062000068816200008160201b60201c565b506007620000778282620002b8565b5050505062000384565b600680546001600160a01b038381166001600160a01b0319831681179093556040519116919082907f8be0079c531659141344cd1fd0a4f28419497f9722a3daafe3b4186f6b6457e090600090a35050565b634e487b7160e01b600052604160045260246000fd5b600082601f830112620000fb57600080fd5b81516001600160401b0380821115620001185762000118620000d3565b604051601f8301601f19908116603f01168101908282118183101715620001435762000143620000d3565b816040528381526020925086838588010111156200016057600080fd5b600091505b8382101562000184578582018301518183018401529082019062000165565b600093810190920192909252949350505050565b600080600060608486031215620001ae57600080fd5b83516001600160401b0380821115620001c657600080fd5b620001d487838801620000e9565b94506020860151915080821115620001eb57600080fd5b620001f987838801620000e9565b935060408601519150808211156200021057600080fd5b506200021f86828701620000e9565b9150509250925092565b600181811c908216806200023e57607f821691505b6020821081036200025f57634e487b7160e01b600052602260045260246000fd5b50919050565b601f821115620002b357600081815260208120601f850160051c810160208610156200028e5750805b601f850160051c820191505b81811015620002af578281556001016200029a565b5050505b505050565b81516001600160401b03811115620002d457620002d4620000d3565b620002ec81620002e5845462000229565b8462000265565b602080601f8311600181146200032457600084156200030b5750858301515b600019600386901b1c1916600185901b178555620002af565b600085815260208120601f198616915b82811015620003555788860151825594840194600190910190840162000334565b5085821015620003745787850151600019600388901b60f8161c191681555b5050505050600190811b01905550565b61147d80620003946000396000f3fe6080604052600436106101345760003560e01c8063715018a6116100ab578063a22cb4651161006f578063a22cb4651461034a578063b88d4fde1461036a578063c002d23d1461038a578063c87b56dd146103a6578063e985e9c5146103c6578063f2fde38b1461040157600080fd5b8063715018a6146102d9578063755edd17146102ee5780638da5cb5b14610301578063902d55a51461031f57806395d89b411461033557600080fd5b806323b872dd116100fd57806323b872dd1461022457806331b3eb941461024457806342842e0e146102645780636352211e146102845780636c0360eb146102a457806370a08231146102b957600080fd5b80629a9b7b1461013957806301ffc9a71461016257806306fdde0314610192578063081812fc146101b4578063095ea7b314610202575b600080fd5b34801561014557600080fd5b5061014f60085481565b6040519081526020015b60405180910390f35b34801561016e57600080fd5b5061018261017d366004611031565b610421565b6040519015158152602001610159565b34801561019e57600080fd5b506101a7610473565b6040516101599190611079565b3480156101c057600080fd5b506101ea6101cf3660046110ac565b6004602052600090815260409020546001600160a01b031681565b6040516001600160a01b039091168152602001610159565b34801561020e57600080fd5b5061022261021d3660046110da565b610501565b005b34801561023057600080fd5b5061022261023f366004611106565b6105e8565b34801561025057600080fd5b5061022261025f366004611147565b6107af565b34801561027057600080fd5b5061022261027f366004611106565b610830565b34801561029057600080fd5b506101ea61029f3660046110ac565b610900565b3480156102b057600080fd5b506101a7610957565b3480156102c557600080fd5b5061014f6102d4366004611147565b610964565b3480156102e557600080fd5b506102226109c7565b61014f6102fc366004611147565b6109db565b34801561030d57600080fd5b506006546001600160a01b03166101ea565b34801561032b57600080fd5b5061014f61271081565b34801561034157600080fd5b506101a7610a4a565b34801561035657600080fd5b50610222610365366004611164565b610a57565b34801561037657600080fd5b506102226103853660046111a2565b610ac3565b34801561039657600080fd5b5061014f67011c37937e08000081565b3480156103b257600080fd5b506101a76103c13660046110ac565b610b88565b3480156103d257600080fd5b506101826103e1366004611241565b600560209081526000928352604080842090915290825290205460ff1681565b34801561040d57600080fd5b5061022261041c366004611147565b610c18565b60006301ffc9a760e01b6001600160e01b03198316148061045257506380ac58cd60e01b6001600160e01b03198316145b8061046d5750635b5e139f60e01b6001600160e01b03198316145b92915050565b600080546104809061126f565b80601f01602080910402602001604051908101604052809291908181526020018280546104ac9061126f565b80156104f95780601f106104ce576101008083540402835291602001916104f9565b820191906000526020600020905b8154815290600101906020018083116104dc57829003601f168201915b505050505081565b6000818152600260205260409020546001600160a01b03163381148061054a57506001600160a01b038116600090815260056020908152604080832033845290915290205460ff165b61058c5760405162461bcd60e51b815260206004820152600e60248201526d1393d517d055551213d49256915160921b60448201526064015b60405180910390fd5b60008281526004602052604080822080546001600160a01b0319166001600160a01b0387811691821790925591518593918516917f8c5be1e5ebec7d5bd14f71427d1e84f3dd0314c0f7b2291e5b200ac8c7c3b92591a4505050565b6000818152600260205260409020546001600160a01b0384811691161461063e5760405162461bcd60e51b815260206004820152600a60248201526957524f4e475f46524f4d60b01b6044820152606401610583565b6001600160a01b0382166106885760405162461bcd60e51b81526020600482015260116024820152701253959053125117d49150d25412515395607a1b6044820152606401610583565b336001600160a01b03841614806106c257506001600160a01b038316600090815260056020908152604080832033845290915290205460ff165b806106e357506000818152600460205260409020546001600160a01b031633145b6107205760405162461bcd60e51b815260206004820152600e60248201526d1393d517d055551213d49256915160921b6044820152606401610583565b6001600160a01b0380841660008181526003602090815260408083208054600019019055938616808352848320805460010190558583526002825284832080546001600160a01b03199081168317909155600490925284832080549092169091559251849392917fddf252ad1be2c89b69c2b068fc378daa952ba7f163c4a11628f55a4df523b3ef91a4505050565b6107b7610c56565b60405147906000906001600160a01b0384169083908381818185875af1925050503d8060008114610804576040519150601f19603f3d011682016040523d82523d6000602084013e610809565b606091505b505090508061082b5760405163d23a9e8960e01b815260040160405180910390fd5b505050565b61083b8383836105e8565b6001600160a01b0382163b15806108e45750604051630a85bd0160e11b8082523360048301526001600160a01b03858116602484015260448301849052608060648401526000608484015290919084169063150b7a029060a4016020604051808303816000875af11580156108b4573d6000803e3d6000fd5b505050506040513d601f19601f820116820180604052508101906108d891906112a9565b6001600160e01b031916145b61082b5760405162461bcd60e51b8152600401610583906112c6565b6000818152600260205260409020546001600160a01b0316806109525760405162461bcd60e51b815260206004820152600a6024820152691393d517d3525395115160b21b6044820152606401610583565b919050565b600780546104809061126f565b60006001600160a01b0382166109ab5760405162461bcd60e51b815260206004820152600c60248201526b5a45524f5f4144445245535360a01b6044820152606401610583565b506001600160a01b031660009081526003602052604090205490565b6109cf610c56565b6109d96000610c83565b565b600067011c37937e0800003414610a05576040516310f0c8f160e11b815260040160405180910390fd5b6000600860008154610a16906112f0565b91829055509050612710811115610a4057604051632cdb04a160e21b815260040160405180910390fd5b61046d8382610cd5565b600180546104809061126f565b3360008181526005602090815260408083206001600160a01b03871680855290835292819020805460ff191686151590811790915590519081529192917f17307eab39ab6107e8899845ad3d59bd9653f200f220920489ca2b5937696c31910160405180910390a35050565b610ace8585856105e8565b6001600160a01b0384163b1580610b655750604051630a85bd0160e11b808252906001600160a01b0386169063150b7a0290610b169033908a90899089908990600401611317565b6020604051808303816000875af1158015610b35573d6000803e3d6000fd5b505050506040513d601f19601f82011682018060405250810190610b5991906112a9565b6001600160e01b031916145b610b815760405162461bcd60e51b8152600401610583906112c6565b5050505050565b60606000610b9583610900565b6001600160a01b031603610bbc5760405163d872946b60e01b815260040160405180910390fd5b600060078054610bcb9061126f565b905011610be7576040518060200160405280600081525061046d565b6007610bf283610da5565b604051602001610c03929190611387565b60405160208183030381529060405292915050565b610c20610c56565b6001600160a01b038116610c4a57604051631e4fbdf760e01b815260006004820152602401610583565b610c5381610c83565b50565b6006546001600160a01b031633146109d95760405163118cdaa760e01b8152336004820152602401610583565b600680546001600160a01b038381166001600160a01b0319831681179093556040519116919082907f8be0079c531659141344cd1fd0a4f28419497f9722a3daafe3b4186f6b6457e090600090a35050565b610cdf8282610e38565b6001600160a01b0382163b1580610d855750604051630a85bd0160e11b80825233600483015260006024830181905260448301849052608060648401526084830152906001600160a01b0384169063150b7a029060a4016020604051808303816000875af1158015610d55573d6000803e3d6000fd5b505050506040513d601f19601f82011682018060405250810190610d7991906112a9565b6001600160e01b031916145b610da15760405162461bcd60e51b8152600401610583906112c6565b5050565b60606000610db283610f43565b600101905060008167ffffffffffffffff811115610dd257610dd2611431565b6040519080825280601f01601f191660200182016040528015610dfc576020820181803683370190505b5090508181016020015b600019016f181899199a1a9b1b9c1cb0b131b232b360811b600a86061a8153600a8504945084610e0657509392505050565b6001600160a01b038216610e825760405162461bcd60e51b81526020600482015260116024820152701253959053125117d49150d25412515395607a1b6044820152606401610583565b6000818152600260205260409020546001600160a01b031615610ed85760405162461bcd60e51b815260206004820152600e60248201526d1053149150511657d3525395115160921b6044820152606401610583565b6001600160a01b038216600081815260036020908152604080832080546001019055848352600290915280822080546001600160a01b0319168417905551839291907fddf252ad1be2c89b69c2b068fc378daa952ba7f163c4a11628f55a4df523b3ef908290a45050565b60008072184f03e93ff9f4daa797ed6e38ed64bf6a1f0160401b8310610f825772184f03e93ff9f4daa797ed6e38ed64bf6a1f0160401b830492506040015b6d04ee2d6d415b85acef81000000008310610fae576d04ee2d6d415b85acef8100000000830492506020015b662386f26fc100008310610fcc57662386f26fc10000830492506010015b6305f5e1008310610fe4576305f5e100830492506008015b6127108310610ff857612710830492506004015b6064831061100a576064830492506002015b600a831061046d5760010192915050565b6001600160e01b031981168114610c5357600080fd5b60006020828403121561104357600080fd5b813561104e8161101b565b9392505050565b60005b83811015611070578181015183820152602001611058565b50506000910152565b6020815260008251806020840152611098816040850160208701611055565b601f01601f19169190910160400192915050565b6000602082840312156110be57600080fd5b5035919050565b6001600160a01b0381168114610c5357600080fd5b600080604083850312156110ed57600080fd5b82356110f8816110c5565b946020939093013593505050565b60008060006060848603121561111b57600080fd5b8335611126816110c5565b92506020840135611136816110c5565b929592945050506040919091013590565b60006020828403121561115957600080fd5b813561104e816110c5565b6000806040838503121561117757600080fd5b8235611182816110c5565b91506020830135801515811461119757600080fd5b809150509250929050565b6000806000806000608086880312156111ba57600080fd5b85356111c5816110c5565b945060208601356111d5816110c5565b935060408601359250606086013567ffffffffffffffff808211156111f957600080fd5b818801915088601f83011261120d57600080fd5b81358181111561121c57600080fd5b89602082850101111561122e57600080fd5b9699959850939650602001949392505050565b6000806040838503121561125457600080fd5b823561125f816110c5565b91506020830135611197816110c5565b600181811c9082168061128357607f821691505b6020821081036112a357634e487b7160e01b600052602260045260246000fd5b50919050565b6000602082840312156112bb57600080fd5b815161104e8161101b565b60208082526010908201526f155394d0519157d49150d2541251539560821b604082015260600190565b60006001820161131057634e487b7160e01b600052601160045260246000fd5b5060010190565b6001600160a01b038681168252851660208201526040810184905260806060820181905281018290526000828460a0840137600060a0848401015260a0601f19601f85011683010190509695505050505050565b6000815161137d818560208601611055565b9290920192915050565b600080845481600182811c9150808316806113a357607f831692505b602080841082036113c257634e487b7160e01b86526022600452602486fd5b8180156113d657600181146113eb57611418565b60ff1986168952841515850289019650611418565b60008b81526020902060005b868110156114105781548b8201529085019083016113f7565b505084890196505b505050505050611428818561136b565b95945050505050565b634e487b7160e01b600052604160045260246000fdfea2646970667358221220fc74434df8dcbe457df681b364fec40e794b3fa153c2919265bf45c1b6718f2d64736f6c63430008140033",
    "linkReferences": {}
  },
  "methodIdentifiers": {
    "MINT_PRICE()": "c002d23d",
    "TOTAL_SUPPLY()": "902d55a5",
    "approve(address,uint256)": "095ea7b3",
    "balanceOf(address)": "70a08231",
    "baseURI()": "6c0360eb",
    "currentTokenId()": "009a9b7b",
    "getApproved(uint256)": "081812fc",
    "isApprovedForAll(address,address)": "e985e9c5",
    "mintTo(address)": "755edd17",
    "name()": "06fdde03",
    "owner()": "8da5cb5b",
    "ownerOf(uint256)": "6352211e",
    "renounceOwnership()": "715018a6",
    "safeTransferFrom(address,address,uint256)": "42842e0e",
    "safeTransferFrom(address,address,uint256,bytes)": "b88d4fde",
    "setApprovalForAll(address,bool)": "a22cb465",
    "supportsInterface(bytes4)": "01ffc9a7",
    "symbol()": "95d89b41",
    "tokenURI(uint256)": "c87b56dd",
    "transferFrom(address,address,uint256)": "23b872dd",
    "transferOwnership(address)": "f2fde38b",
    "withdrawPayments(address)": "31b3eb94"
  },
  "id": 21
}